S01900004B65797061642043616C63756C61746F722E7372656383
S11300000C942A000C943F000C943F000C943F0085
S11300100C943F000C943F000C943F000C943F0060
S11300200C943F000C943F000C943F000C943F0050
S11300300C943F000C943F000C943F000C943F0040
S11300400C943F000C943F000C943F000C943F0030
S11300500C943F0011241FBECFE5D8E0DEBFCDBF16
S113006010E0A0E6B0E0EEE2F7E002C005900D92E9
S1130070A83AB107D9F70E94EC020C9495030C94AA
S11300800000813041F028F0823039F0833039F0BB
S113009008956ABB089567BB089564BB089561BB66
S11300A00895813041F028F0823039F0833039F0FE
S11300B008956BBB089568BB089565BB089562BB42
S11300C00895813011F130F08230D1F1833009F498
S11300D052C008954F3F59F42AB381E090E002C022
S11300E0880F991F6A95E2F7822B8ABB0895411104
S11300F05CC02AB381E090E002C0880F991F6A9522
S1130100E2F7809582238ABB08954F3F59F427B3C1
S113011081E090E002C0880F991F6A95E2F7822B74
S113012087BB0895411141C027B381E090E002C02C
S1130130880F991F6A95E2F78095822387BB0895FB
S11301404F3F59F424B381E090E002C0880F991F17
S11301506A95E2F7822B84BB0895411126C024B32B
S113016081E090E002C0880F991F6A95E2F78095BC
S1130170822384BB08954F3F59F421B381E090E07A
S113018002C0880F991F6A95E2F7822B81BB0895FC
S113019041110BC021B381E090E002C0880F991F88
S11301A06A95E2F78095822381BB0895813011F12D
S11301B030F08230D1F1833009F452C008954130D7
S11301C059F42BB381E090E002C0880F991F6A951F
S11301D0E2F7822B8BBB089541115CC02BB381E005
S11301E090E002C0880F991F6A95E2F780958223F8
S11301F08BBB0895413059F428B381E090E002C0EC
S1130200880F991F6A95E2F7822B88BB08954111E4
S113021041C028B381E090E002C0880F991F6A951D
S1130220E2F78095822388BB0895413059F425B3C1
S113023081E090E002C0880F991F6A95E2F7822B53
S113024085BB0895411126C025B381E090E002C02A
S1130250880F991F6A95E2F78095822385BB0895DC
S1130260413059F422B381E090E002C0880F991F15
S11302706A95E2F7822B82BB089541110BC022B329
S113028081E090E002C0880F991F6A95E2F780959B
S1130290822382BB0895813081F028F08230B9F046
S11302A08330F9F027C089B390E002C09595879513
S11302B06A95E2F7982F91701DC086B390E002C052
S11302C0959587956A95E2F7982F917013C083B33B
S11302D090E002C0959587956A95E2F7982F917002
S11302E009C080B390E002C0959587956A95E2F7BE
S11302F0982F9170892F0895CF93C0E007C064E0D0
S11303006C0F40E082E00E946100CF5FC430B8F31C
S1130310C0E006C04FEF6C2F82E00E946100CF5F07
S1130320C430C0F3C0E006C041E06C2F82E00E94FC
S1130330D600CF5FC430C0F3C0E007C064E06C0FE8
S113034041E082E00E94D600CF5FC430B8F3CF9181
S113035008951F93CF93DF9314E7D0E030C040E0BB
S11303606D2F82E00E94D600C4E021C06C2F82E091
S11303700E944B01811110C08D2F90E02C2F30E092
S113038024503109880F991F880F991F805A9F4F55
S1130390FC01E20FF31F108183B390E00C2E02C026
S11303A0959587950A94E2F780FFF6CFCF5FC83022
S11303B0E8F241E06D2F82E00E94D600DF5FD43086
S11303C070F2812FDF91CF911F9108954B3249F044
S11303D018F44A3271F01CC04D3239F04F3289F0B2
S11303E017C09C01260F371F18C09C01261B370B12
S11303F014C0869F9001879F300D969F300D112465
S11304000CC06115710539F00E946D039B0105C094
S113041020E030E002C020E030E0C9010895CF932D
S1130420C82F40E067E081E00E94D6006C2F80E096
S11304300E94510041E066E081E00E94D6008FEC0A
S113044097E00197F1F700C0000040E066E081E02A
S11304500E94D6008FEC97E00197F1F700C00000EE
S1130460CF9108956FEF80E00E9441006FEF81E02B
S11304700E94410040E067E081E00E94D6002FE73F
S113048088E391E0215080409040E1F700C00000F3
S113049088E30E940F028CE00E940F0281E00E9418
S11304A00F0286E00E940F020895CF93C82F41E007
S11304B067E081E00E94D6006C2F80E00E9451002A
S11304C041E066E081E00E94D6008FEC97E001975E
S11304D0F1F700C0000040E066E081E00E94D60031
S11304E08FEC97E00197F1F700C00000CF910895D9
S11304F0815019F0813031F008958FE7860F0E9402
S11305000F0208958FEB860F0E940F0208950F9338
S11305101F93CF938C01C0E003C00E945502CF5FAC
S1130520F801EC0FF11D80818111F7CFCF911F915C
S11305300F910895EF92FF920F931F93CF93DF9340
S1130540CDB7DEB72A970FB6F894DEBF0FBECDBF86
S11305507C01992334F48DE20E945502F194E194D4
S1130560F108E114F104B1F480E30E94550227C0BC
S1130570C7016AE070E00E948103E1E0F0E0EC0F63
S1130580FD1FE00FF11F805D8083E62EF72E0F5FC5
S11305901F4F02C000E010E01E141F044CF3015072
S11305A011090BC0E1E0F0E0EC0FFD1FE00FF11FBB
S11305B080810E9455020150110911239CF72A964B
S11305C00FB6F894DEBF0FBECDBFDF91CF911F9160
S11305D00F91FF90EF9008950E9432020E947C01D7
S11305E080E790E00E948702D0E0E12CF12C00E04B
S11305F010E00E94A901C82F8437D9F380ED8C0F35
S11306008A3038F5D11111C0C801880F991F000F25
S1130610111F000F111F000F111F080F191F8C2F1E
S113062090E0C097080F191F10C0C701880F991FC9
S1130630EE0CFF1CEE0CFF1CEE0CFF1CE80EF91E6A
S11306408C2F90E0C097E80EF91E8C2F0E94550263
S1130650D0CFCB3231F0CD3221F0CA3211F0CF32CB
S113066039F4D111C6CF8C2F0E945502DC2FC1CF93
S1130670CD3391F44D2FB701C8010E94E6016C01FE
S113068061E082E00E9478028DE790E00E94870298
S1130690C6010E949A02ADCFC33609F0AACF61E029
S11306A081E00E94780286E890E00E94870261E07F
S11306B082E00E94780286E890E00E94870261E06E
S11306C081E00E94780280E790E00E948702D0E0F7
S11306D0E12CF12C00E010E08CCFAA1BBB1B51E1F4
S11306E007C0AA1FBB1FA617B70710F0A61BB70B9E
S11306F0881F991F5A95A9F780959095BC01CD0143
S1130700089597FB072E16F4009407D077FD09D0BF
S11307100E946D0307FC05D03EF4909581959F4F90
S11107200895709561957F4F0895F894FFCF6A
S113072E3738392F3435362A3132332D63303D2B59
S113073E43616C63756C61746F723A200052657319
S113074E756C743A200020202020202020202020A8
S113075E2020202020202020202020202020202087
S10B076E20202020202020009F
S9030000FC
